{
  "contractName": "Faucet",
  "abi": [
    {
      "inputs": [],
      "name": "numOfFunders",
      "outputs": [
        {
          "internalType": "uint256",
          "name": "",
          "type": "uint256"
        }
      ],
      "stateMutability": "view",
      "type": "function"
    },
    {
      "inputs": [],
      "name": "owner",
      "outputs": [
        {
          "internalType": "address",
          "name": "",
          "type": "address"
        }
      ],
      "stateMutability": "view",
      "type": "function"
    },
    {
      "inputs": [],
      "name": "testNum",
      "outputs": [
        {
          "internalType": "uint256",
          "name": "",
          "type": "uint256"
        }
      ],
      "stateMutability": "view",
      "type": "function"
    },
    {
      "stateMutability": "payable",
      "type": "receive"
    },
    {
      "inputs": [],
      "name": "emitLog",
      "outputs": [
        {
          "internalType": "bytes32",
          "name": "",
          "type": "bytes32"
        }
      ],
      "stateMutability": "pure",
      "type": "function"
    },
    {
      "inputs": [
        {
          "internalType": "address",
          "name": "newOwner",
          "type": "address"
        }
      ],
      "name": "tranferOwnership",
      "outputs": [],
      "stateMutability": "nonpayable",
      "type": "function"
    },
    {
      "inputs": [],
      "name": "addFunds",
      "outputs": [],
      "stateMutability": "payable",
      "type": "function"
    },
    {
      "inputs": [
        {
          "internalType": "uint256",
          "name": "withdrawAmount",
          "type": "uint256"
        }
      ],
      "name": "withdraw",
      "outputs": [],
      "stateMutability": "payable",
      "type": "function"
    },
    {
      "inputs": [],
      "name": "test1",
      "outputs": [],
      "stateMutability": "nonpayable",
      "type": "function"
    },
    {
      "inputs": [],
      "name": "getAllFunders",
      "outputs": [
        {
          "internalType": "address[]",
          "name": "",
          "type": "address[]"
        }
      ],
      "stateMutability": "view",
      "type": "function"
    },
    {
      "inputs": [
        {
          "internalType": "uint8",
          "name": "index",
          "type": "uint8"
        }
      ],
      "name": "getFundersAtIndex",
      "outputs": [
        {
          "internalType": "address",
          "name": "",
          "type": "address"
        }
      ],
      "stateMutability": "view",
      "type": "function"
    }
  ],
  "bytecode": "0x608060405234801561001057600080fd5b50336000806101000a81548173ffffffffffffffffffffffffffffffffffffffff021916908373ffffffffffffffffffffffffffffffffffffffff1602179055506103e8600181905550610ba0806100696000396000f3fe6080604052600436106100955760003560e01c8063a26759cb11610059578063a26759cb14610153578063ae28f1ed1461015d578063af7f2c9b14610188578063f388b266146101b3578063f42c13bf146101f05761009c565b80632e1a7d4d146100a15780636b59084d146100bd5780636fbbb55d146100d457806383fc58b4146100ff5780638da5cb5b146101285761009c565b3661009c57005b600080fd5b6100bb60048036038101906100b691906106ff565b61021b565b005b3480156100c957600080fd5b506100d26102b1565b005b3480156100e057600080fd5b506100e9610341565b6040516100f6919061081c565b60405180910390f35b34801561010b57600080fd5b506101266004803603810190610121919061086a565b61043b565b005b34801561013457600080fd5b5061013d61050c565b60405161014a91906108a6565b60405180910390f35b61015b610530565b005b34801561016957600080fd5b50610172610650565b60405161017f91906108d0565b60405180910390f35b34801561019457600080fd5b5061019d610656565b6040516101aa91906108d0565b60405180910390f35b3480156101bf57600080fd5b506101da60048036038101906101d59190610924565b61065c565b6040516101e791906108a6565b60405180910390f35b3480156101fc57600080fd5b5061020561069c565b604051610212919061096a565b60405180910390f35b80662386f26fc10000811115610266576040517f08c379a000000000000000000000000000000000000000000000000000000000815260040161025d90610a08565b60405180910390fd5b3373ffffffffffffffffffffffffffffffffffffffff166108fc839081150290604051600060405180830381858888f193505050501580156102ac573d6000803e3d6000fd5b505050565b60008054906101000a900473ffffffffffffffffffffffffffffffffffffffff1673ffffffffffffffffffffffffffffffffffffffff163373ffffffffffffffffffffffffffffffffffffffff161461033f576040517f08c379a000000000000000000000000000000000000000000000000000000000815260040161033690610a74565b60405180910390fd5b565b6060600060025467ffffffffffffffff81111561036157610360610a94565b5b60405190808252806020026020018201604052801561038f5781602001602082028036833780820191505090505b50905060005b600254811015610433576004600082815260200190815260200160002060009054906101000a900473ffffffffffffffffffffffffffffffffffffffff168282815181106103e6576103e5610ac3565b5b602002602001019073ffffffffffffffffffffffffffffffffffffffff16908173ffffffffffffffffffffffffffffffffffffffff1681525050808061042b90610b21565b915050610395565b508091505090565b60008054906101000a900473ffffffffffffffffffffffffffffffffffffffff1673ffffffffffffffffffffffffffffffffffffffff163373ffffffffffffffffffffffffffffffffffffffff16146104c9576040517f08c379a00000000000000000000000000000000000000000000000000000000081526004016104c090610a74565b60405180910390fd5b806000806101000a81548173ffffffffffffffffffffffffffffffffffffffff021916908373ffffffffffffffffffffffffffffffffffffffff16021790555050565b60008054906101000a900473ffffffffffffffffffffffffffffffffffffffff1681565b6000339050600360008273ffffffffffffffffffffffffffffffffffffffff1673ffffffffffffffffffffffffffffffffffffffff16815260200190815260200160002060009054906101000a900460ff1661064d5760006002600081548092919061059b90610b21565b9190505590506001600360008473ffffffffffffffffffffffffffffffffffffffff1673ffffffffffffffffffffffffffffffffffffffff16815260200190815260200160002060006101000a81548160ff021916908315150217905550816004600083815260200190815260200160002060006101000a81548173ffffffffffffffffffffffffffffffffffffffff021916908373ffffffffffffffffffffffffffffffffffffffff160217905550505b50565b60015481565b60025481565b6000600460008360ff16815260200190815260200160002060009054906101000a900473ffffffffffffffffffffffffffffffffffffffff169050919050565b60007f48656c6c6f20576f726c64000000000000000000000000000000000000000000905090565b600080fd5b6000819050919050565b6106dc816106c9565b81146106e757600080fd5b50565b6000813590506106f9816106d3565b92915050565b600060208284031215610715576107146106c4565b5b6000610723848285016106ea565b91505092915050565b600081519050919050565b600082825260208201905092915050565b6000819050602082019050919050565b600073ffffffffffffffffffffffffffffffffffffffff82169050919050565b600061078382610758565b9050919050565b61079381610778565b82525050565b60006107a5838361078a565b60208301905092915050565b6000602082019050919050565b60006107c98261072c565b6107d38185610737565b93506107de83610748565b8060005b8381101561080f5781516107f68882610799565b9750610801836107b1565b9250506001810190506107e2565b5085935050505092915050565b6000602082019050818103600083015261083681846107be565b905092915050565b61084781610778565b811461085257600080fd5b50565b6000813590506108648161083e565b92915050565b6000602082840312156108805761087f6106c4565b5b600061088e84828501610855565b91505092915050565b6108a081610778565b82525050565b60006020820190506108bb6000830184610897565b92915050565b6108ca816106c9565b82525050565b60006020820190506108e560008301846108c1565b92915050565b600060ff82169050919050565b610901816108eb565b811461090c57600080fd5b50565b60008135905061091e816108f8565b92915050565b60006020828403121561093a576109396106c4565b5b60006109488482850161090f565b91505092915050565b6000819050919050565b61096481610951565b82525050565b600060208201905061097f600083018461095b565b92915050565b600082825260208201905092915050565b7f43616e6e6f74207769746864726177206d6f7265207468616e20302e3120656960008201527f7468657200000000000000000000000000000000000000000000000000000000602082015250565b60006109f2602483610985565b91506109fd82610996565b604082019050919050565b60006020820190508181036000830152610a21816109e5565b9050919050565b7f4f6e6c79206f776e65722063616c6c20746869732066756e6374696f6e000000600082015250565b6000610a5e601d83610985565b9150610a6982610a28565b602082019050919050565b60006020820190508181036000830152610a8d81610a51565b9050919050565b7f4e487b7100000000000000000000000000000000000000000000000000000000600052604160045260246000fd5b7f4e487b7100000000000000000000000000000000000000000000000000000000600052603260045260246000fd5b7f4e487b7100000000000000000000000000000000000000000000000000000000600052601160045260246000fd5b6000610b2c826106c9565b91507fffffffffffffffffffffffffffffffffffffffffffffffffffffffffffffffff821415610b5f57610b5e610af2565b5b60018201905091905056fea26469706673582212209dfbeb40656acfbd1e8513bbe2d8a7bb3c46948d7f8ad8ebcb233d2d2111a1be64736f6c634300080b0033",
  "immutableReferences": {},
  "source": "// SPDX-License-Identifier: MIT\r\npragma solidity >=0.4.22 <0.9.0;\r\n\r\nimport \"./Owned.sol\";\r\nimport \"./Logger.sol\";\r\nimport \"./IFaucet.sol\";\r\n\r\ncontract Faucet is Owned,Logger,IFaucet{\r\n    //storage variables\r\n    //Funds mean Qy u T\r\n    // uint public funds = 1000; //positive values only\r\n\r\n    // int public counter = -10;\r\n    // uint public test = 4294967295;\r\n\r\n    //funds[0x12342....] = 500\r\n    //funds[0x12342....] = 300\r\n    //funds[0x12342....] = 200\r\n    \r\n    uint public numOfFunders;\r\n\r\n\r\n    mapping(address => bool) private funders;\r\n    mapping(uint => address) private lutFunders;\r\n\r\n\r\n    \r\n\r\n    modifier limitWithdraw(uint withdrawAmount){\r\n        require(\r\n            withdrawAmount <= 10000000000000000,\r\n             \"Cannot withdraw more than 0.1 either\" \r\n             );\r\n             _;\r\n\r\n    }\r\n\r\n    receive() external payable {}\r\n    function emitLog() public override pure returns(bytes32){\r\n        return \"Hello World\";\r\n    }\r\n\r\n    function tranferOwnership(address newOwner) external onlyOwner{\r\n        owner = newOwner;\r\n    }\r\n\r\n\r\n    //private -> can be accesible only within the smart contract\r\n    //internal -> can be accesible within smart contracts and also derived smart contracts\r\n\r\n    //this is a special function\r\n    //it's called when you make a that doesn't specify\r\n    //function name to call\r\n\r\n    //External functiona are part of the contract interface\r\n    //which mean they can be called via contract and other txs\r\n\r\n    // receive() external payable {}\r\n\r\n    function addFunds() override external payable {\r\n       address funder = msg.sender;\r\n\r\n       if(!funders[funder]){\r\n           uint index = numOfFunders++;\r\n           funders[funder] = true;\r\n           lutFunders[index] = funder;\r\n       }\r\n    }\r\n\r\n    function withdraw(uint withdrawAmount) override external payable limitWithdraw(withdrawAmount) {\r\n\r\n\r\n        payable(msg.sender).transfer(withdrawAmount);\r\n        }\r\n\r\n\r\n    function test1() external onlyOwner{\r\n        //some managing stuff that only admin should have access to \r\n    }\r\n    \r\n\r\n\r\n    //pure view\r\n\r\n    function getAllFunders() external view returns(address[] memory){\r\n        address[] memory _funders = new address[](numOfFunders);\r\n\r\n        for(uint i = 0 ; i < numOfFunders ; i++){\r\n            _funders[i] = lutFunders[i];\r\n        }\r\n\r\n        return _funders;\r\n\r\n\r\n    }\r\n\r\n\r\n    function getFundersAtIndex(uint8 index) external view returns (address) {\r\n       \r\n        return lutFunders[index];\r\n    }\r\n}\r\n\r\n//const instance = await Faucet.deployed()\r\n// instance.addFunds({from : accounts[0], value: \"2000000000000000000\"})\r\n// instance.addFunds({from : accounts[1], value: \"2000000000000000000\"})\r\n//instance.withdraw(\"100000000000000000\",{from :  accounts[1]})\r\n// instance.getFundersAtIndex(0)\r\n// instance.getAllFunders()",
  "sourcePath": "D:\\PROJECT\\DApp-Blockchain\\fauce3\\contracts\\FaucetContract.sol",
  "compiler": {
    "name": "solc",
    "version": "0.8.11+commit.d7f03943.Emscripten.clang"
  },
  "schemaVersion": "3.4.4",
  "updatedAt": "2022-05-13T00:21:43.198Z",
  "devdoc": {
    "kind": "dev",
    "methods": {},
    "version": 1
  },
  "userdoc": {
    "kind": "user",
    "methods": {},
    "version": 1
  }
}