{
  "contractName": "Test",
  "abi": [
    {
      "inputs": [
        {
          "internalType": "uint256",
          "name": "testNum",
          "type": "uint256"
        }
      ],
      "name": "test",
      "outputs": [
        {
          "internalType": "uint256",
          "name": "data",
          "type": "uint256"
        }
      ],
      "stateMutability": "pure",
      "type": "function"
    },
    {
      "inputs": [],
      "name": "test2",
      "outputs": [
        {
          "internalType": "uint256",
          "name": "data",
          "type": "uint256"
        }
      ],
      "stateMutability": "pure",
      "type": "function"
    }
  ],
  "bytecode": "0x608060405234801561001057600080fd5b506101ac806100206000396000f3fe608060405234801561001057600080fd5b50600436106100365760003560e01c806329e99f071461003b57806366e41cb71461006b575b600080fd5b6100556004803603810190610050919061011f565b610089565b604051610062919061015b565b60405180910390f35b6100736100c9565b604051610080919061015b565b60405180910390f35b6000609060405260006040518060600160405280600160ff168152602001600260ff168152602001600360ff168152509050602060900151915050919050565b60006040516468656c6c6f6000820152600081015191505090565b600080fd5b6000819050919050565b6100fc816100e9565b811461010757600080fd5b50565b600081359050610119816100f3565b92915050565b600060208284031215610135576101346100e4565b5b60006101438482850161010a565b91505092915050565b610155816100e9565b82525050565b6000602082019050610170600083018461014c565b9291505056fea2646970667358221220d0676f8a4e22c957a8485d51aabe183e535be6d3c5891eaba6d0aea3a65b769e64736f6c634300080b0033",
  "immutableReferences": {},
  "source": "// SPDX-License-Identifier: MIT\r\npragma solidity >=0.4.22 <0.9.0;\r\n\r\ncontract Test {\r\n    function test(uint testNum) external pure returns(uint data) {\r\n\r\n        assembly {\r\n            mstore(0x40,0x90)\r\n        }\r\n\r\n        uint8[3] memory items = [1,2,3];\r\n\r\n        assembly {\r\n            data := mload(add(0x90,0x20))\r\n        }\r\n    }\r\n\r\n    function test2() external pure returns(uint data) {\r\n\r\n        \r\n\r\n        assembly {\r\n            let fmp := mload(0x40)\r\n            //hello\r\n            mstore(add(fmp,0x00),0x68656C6C6F)\r\n            data := mload(add(fmp,0x00))\r\n            \r\n\r\n        }\r\n    }\r\n}",
  "sourcePath": "D:\\PROJECT\\DApp-Blockchain\\fauce3\\contracts\\Test.sol",
  "compiler": {
    "name": "solc",
    "version": "0.8.11+commit.d7f03943.Emscripten.clang"
  },
  "schemaVersion": "3.4.4",
  "updatedAt": "2022-05-13T00:21:43.277Z",
  "devdoc": {
    "kind": "dev",
    "methods": {},
    "version": 1
  },
  "userdoc": {
    "kind": "user",
    "methods": {},
    "version": 1
  }
}